{
  "transactions": [
    {
      "hash": "0x278ee9e281678eb340be05ecc175efdfb5caac6cf8c5f5cf0f78add6c181ff21",
      "transactionType": "CREATE",
      "contractName": "RepaymentFacet",
      "contractAddress": "0x3d7caca90569ca4cff6a568764666829fe171213",
      "function": null,
      "arguments": null,
      "transaction": {
        "from": "0x090f02fac47a0a4e0f38b0118e58b34d45b30625",
        "gas": "0xd2140",
        "value": "0x0",
        "input": "0x6080604052348015600f57600080fd5b50610b0f8061001f6000396000f3fe6080604052600436106100295760003560e01c8063ab7b1c891461002e578063d028aa621461004a575b600080fd5b610048600480360381019061004391906107b1565b610087565b005b34801561005657600080fd5b50610071600480360381019061006c91906107b1565b6103bd565b60405161007e91906108eb565b60405180910390f35b600061009161053f565b905080600001600083815260200190815260200160002060000160009054906101000a900473ffffffffffffffffffffffffffffffffffffffff1673ffffffffffffffffffffffffffffffffffffffff163373ffffffffffffffffffffffffffffffffffffffff1614610130576040517f4a6315a200000000000000000000000000000000000000000000000000000000815260040160405180910390fd5b80600001600083815260200190815260200160002060070160009054906101000a900460ff161561018d576040517f2ff2465c00000000000000000000000000000000000000000000000000000000815260040160405180910390fd5b600061271082600001600085815260200190815260200160002060050154836000016000868152602001908152602001600020600401546101ce9190610936565b6101d891906109a7565b90506000818360000160008681526020019081526020016000206004015461020091906109d8565b9050803410158190610248576040517febce7ca100000000000000000000000000000000000000000000000000000000815260040161023f9190610a1b565b60405180910390fd5b50600183600001600086815260200190815260200160002060070160006101000a81548160ff021916908315150217905550803411156102d5573373ffffffffffffffffffffffffffffffffffffffff166108fc82346102a89190610a36565b9081150290604051600060405180830381858888f193505050501580156102d3573d6000803e3d6000fd5b505b61032f83600001600086815260200190815260200160002060020160009054906101000a900473ffffffffffffffffffffffffffffffffffffffff168460000160008781526020019081526020016000206003015461056c565b82600001600085815260200190815260200160002060000160009054906101000a900473ffffffffffffffffffffffffffffffffffffffff1673ffffffffffffffffffffffffffffffffffffffff167f512d3e65b3e58c2187bb1872aa435dba5bd09c1c03823ba56ab70aac411e4a2185836040516103af929190610a6a565b60405180910390a250505050565b6103c56106ed565b60006103cf61053f565b9050806000016000848152602001908152602001600020604051806101000160405290816000820160009054906101000a900473ffffffffffffffffffffffffffffffffffffffff1673ffffffffffffffffffffffffffffffffffffffff1673ffffffffffffffffffffffffffffffffffffffff1681526020016001820160009054906101000a900473ffffffffffffffffffffffffffffffffffffffff1673ffffffffffffffffffffffffffffffffffffffff1673ffffffffffffffffffffffffffffffffffffffff1681526020016002820160009054906101000a900473ffffffffffffffffffffffffffffffffffffffff1673ffffffffffffffffffffffffffffffffffffffff1673ffffffffffffffffffffffffffffffffffffffff168152602001600382015481526020016004820154815260200160058201548152602001600682015481526020016007820160009054906101000a900460ff161515151581525050915050919050565b6000807f74ac430347543187855945e32428fd50346cee5a128e8593b1cad8758382477d90508091505090565b600061057661053f565b90508060040160008473ffffffffffffffffffffffffffffffffffffffff1673ffffffffffffffffffffffffffffffffffffffff168152602001908152602001600020600083815260200190815260200160002060009054906101000a900460ff1661060e576040517f14c5f7b600000000000000000000000000000000000000000000000000000000815260040160405180910390fd5b60008160040160008573ffffffffffffffffffffffffffffffffffffffff1673ffffffffffffffffffffffffffffffffffffffff168152602001908152602001600020600084815260200190815260200160002060006101000a81548160ff0219169083151502179055508273ffffffffffffffffffffffffffffffffffffffff166323b872dd3033856040518463ffffffff1660e01b81526004016106b693929190610aa2565b600060405180830381600087803b1580156106d057600080fd5b505af11580156106e4573d6000803e3d6000fd5b50505050505050565b604051806101000160405280600073ffffffffffffffffffffffffffffffffffffffff168152602001600073ffffffffffffffffffffffffffffffffffffffff168152602001600073ffffffffffffffffffffffffffffffffffffffff168152602001600081526020016000815260200160008152602001600081526020016000151581525090565b600080fd5b6000819050919050565b61078e8161077b565b811461079957600080fd5b50565b6000813590506107ab81610785565b92915050565b6000602082840312156107c7576107c6610776565b5b60006107d58482850161079c565b91505092915050565b600073ffffffffffffffffffffffffffffffffffffffff82169050919050565b6000610809826107de565b9050919050565b610819816107fe565b82525050565b6108288161077b565b82525050565b60008115159050919050565b6108438161082e565b82525050565b610100820160008201516108606000850182610810565b5060208201516108736020850182610810565b5060408201516108866040850182610810565b506060820151610899606085018261081f565b5060808201516108ac608085018261081f565b5060a08201516108bf60a085018261081f565b5060c08201516108d260c085018261081f565b5060e08201516108e560e085018261083a565b50505050565b6000610100820190506109016000830184610849565b92915050565b7f4e487b7100000000000000000000000000000000000000000000000000000000600052601160045260246000fd5b60006109418261077b565b915061094c8361077b565b925082820261095a8161077b565b9150828204841483151761097157610970610907565b5b5092915050565b7f4e487b7100000000000000000000000000000000000000000000000000000000600052601260045260246000fd5b60006109b28261077b565b91506109bd8361077b565b9250826109cd576109cc610978565b5b828204905092915050565b60006109e38261077b565b91506109ee8361077b565b9250828201905080821115610a0657610a05610907565b5b92915050565b610a158161077b565b82525050565b6000602082019050610a306000830184610a0c565b92915050565b6000610a418261077b565b9150610a4c8361077b565b9250828203905081811115610a6457610a63610907565b5b92915050565b6000604082019050610a7f6000830185610a0c565b610a8c6020830184610a0c565b9392505050565b610a9c816107fe565b82525050565b6000606082019050610ab76000830186610a93565b610ac46020830185610a93565b610ad16040830184610a0c565b94935050505056fea2646970667358221220a2815edf6cf5835f1caf287d1a4e01c713a9ba02f07cfadc3da413c78f72ef7164736f6c634300081c0033",
        "nonce": "0x3d",
        "chainId": "0x4268"
      },
      "additionalContracts": [],
      "isFixedGasLimit": false
    },
    {
      "hash": "0xca97f482578131a04b64f9a78c79bd38d3b07ea0edc5034133c199d177882d30",
      "transactionType": "CALL",
      "contractName": null,
      "contractAddress": "0x0c65d60940fa4afdb5eefa05d952d72a4d23ff3a",
      "function": "diamondCut((address,uint8,bytes4[])[],address,bytes)",
      "arguments": [
        "[(0x3d7CAcA90569Ca4cff6A568764666829fE171213, 1, [0xab7b1c89, 0xd028aa62])]",
        "0x0000000000000000000000000000000000000000",
        "0x"
      ],
      "transaction": {
        "from": "0x090f02fac47a0a4e0f38b0118e58b34d45b30625",
        "to": "0x0c65d60940fa4afdb5eefa05d952d72a4d23ff3a",
        "gas": "0x303b5",
        "value": "0x0",
        "input": "0x1f931c1c000000000000000000000000000000000000000000000000000000000000006000000000000000000000000000000000000000000000000000000000000000000000000000000000000000000000000000000000000000000000000000000160000000000000000000000000000000000000000000000000000000000000000100000000000000000000000000000000000000000000000000000000000000200000000000000000000000003d7caca90569ca4cff6a568764666829fe171213000000000000000000000000000000000000000000000000000000000000000100000000000000000000000000000000000000000000000000000000000000600000000000000000000000000000000000000000000000000000000000000002ab7b1c8900000000000000000000000000000000000000000000000000000000d028aa62000000000000000000000000000000000000000000000000000000000000000000000000000000000000000000000000000000000000000000000000",
        "nonce": "0x3e",
        "chainId": "0x4268"
      },
      "additionalContracts": [],
      "isFixedGasLimit": false
    }
  ],
  "receipts": [
    {
      "status": "0x1",
      "cumulativeGasUsed": "0x134a5f4",
      "logs": [],
      "logsBloom": "0x00000000000000000000000000000000000000000000000000000000000000000000000000000000000000000000000000000000000000000000000000000000000000000000000000000000000000000000000000000000000000000000000000000000000000000000000000000000000000000000000000000000000000000000000000000000000000000000000000000000000000000000000000000000000000000000000000000000000000000000000000000000000000000000000000000000000000000000000000000000000000000000000000000000000000000000000000000000000000000000000000000000000000000000000000000000",
      "type": "0x2",
      "transactionHash": "0x278ee9e281678eb340be05ecc175efdfb5caac6cf8c5f5cf0f78add6c181ff21",
      "transactionIndex": "0x40",
      "blockHash": "0x0437d26dc1e2ecb2b0867d40bf0d3a174ac7e4b2bb4064d3ae110fd81701e4cd",
      "blockNumber": "0x2881c8",
      "gasUsed": "0xa1a48",
      "effectiveGasPrice": "0x1fc3b66c",
      "from": "0x090f02fac47a0a4e0f38b0118e58b34d45b30625",
      "to": null,
      "contractAddress": "0x3d7caca90569ca4cff6a568764666829fe171213"
    },
    {
      "status": "0x1",
      "cumulativeGasUsed": "0x136d4a8",
      "logs": [
        {
          "address": "0x0c65d60940fa4afdb5eefa05d952d72a4d23ff3a",
          "topics": [
            "0x8faa70878671ccd212d20771b795c50af8fd3ff6cf27f4bde57e5d4de0aeb673"
          ],
          "data": "0x000000000000000000000000000000000000000000000000000000000000006000000000000000000000000000000000000000000000000000000000000000000000000000000000000000000000000000000000000000000000000000000160000000000000000000000000000000000000000000000000000000000000000100000000000000000000000000000000000000000000000000000000000000200000000000000000000000003d7caca90569ca4cff6a568764666829fe171213000000000000000000000000000000000000000000000000000000000000000100000000000000000000000000000000000000000000000000000000000000600000000000000000000000000000000000000000000000000000000000000002ab7b1c8900000000000000000000000000000000000000000000000000000000d028aa62000000000000000000000000000000000000000000000000000000000000000000000000000000000000000000000000000000000000000000000000",
          "blockHash": "0x0437d26dc1e2ecb2b0867d40bf0d3a174ac7e4b2bb4064d3ae110fd81701e4cd",
          "blockNumber": "0x2881c8",
          "blockTimestamp": "0x67257d20",
          "transactionHash": "0xca97f482578131a04b64f9a78c79bd38d3b07ea0edc5034133c199d177882d30",
          "transactionIndex": "0x41",
          "logIndex": "0x9f",
          "removed": false
        }
      ],
      "logsBloom": "0x00000000000000000000000000000000000000000000000000000000000000000000000000200000000000000000000000000000000000000000000000000000000000000000000000000000000000000000000001000000001800000000000000000000000000000000000000000000000000000000000000000000000000000020000000000100000000000000000000000000000000000000000000000000000000000000000000000000000000000000000000000000000000000000000000000000000000000000000000000000000000000000000000000000000000000000000000000000000000000000000000000000000000000000000000000000",
      "type": "0x2",
      "transactionHash": "0xca97f482578131a04b64f9a78c79bd38d3b07ea0edc5034133c199d177882d30",
      "transactionIndex": "0x41",
      "blockHash": "0x0437d26dc1e2ecb2b0867d40bf0d3a174ac7e4b2bb4064d3ae110fd81701e4cd",
      "blockNumber": "0x2881c8",
      "gasUsed": "0x22eb4",
      "effectiveGasPrice": "0x1fc3b66c",
      "from": "0x090f02fac47a0a4e0f38b0118e58b34d45b30625",
      "to": "0x0c65d60940fa4afdb5eefa05d952d72a4d23ff3a",
      "contractAddress": null
    }
  ],
  "libraries": [],
  "pending": [],
  "returns": {},
  "timestamp": 1730510143,
  "chain": 17000,
  "commit": "ddff30d"
}