{
  "transactions": [
    {
      "hash": "0x092aa12b77b316f9bbf745cd11de0d265c4c2ab9be1b6283e412a5dac8092f29",
      "transactionType": "CREATE",
      "contractName": "RepaymentFacet",
      "contractAddress": "0x9b74d936db6e66a670da4a6c8972d3c6c674038e",
      "function": null,
      "arguments": null,
      "transaction": {
        "from": "0x090f02fac47a0a4e0f38b0118e58b34d45b30625",
        "gas": "0x5d8dd",
        "value": "0x0",
        "input": "0x6080604052348015600f57600080fd5b5061045f8061001f6000396000f3fe608060405234801561001057600080fd5b506004361061002b5760003560e01c8063d028aa6214610030575b600080fd5b61004a600480360381019061004591906102d3565b610060565b604051610057919061040d565b60405180910390f35b61006861020f565b60006100726101e2565b9050806000016000848152602001908152602001600020604051806101000160405290816000820160009054906101000a900473ffffffffffffffffffffffffffffffffffffffff1673ffffffffffffffffffffffffffffffffffffffff1673ffffffffffffffffffffffffffffffffffffffff1681526020016001820160009054906101000a900473ffffffffffffffffffffffffffffffffffffffff1673ffffffffffffffffffffffffffffffffffffffff1673ffffffffffffffffffffffffffffffffffffffff1681526020016002820160009054906101000a900473ffffffffffffffffffffffffffffffffffffffff1673ffffffffffffffffffffffffffffffffffffffff1673ffffffffffffffffffffffffffffffffffffffff168152602001600382015481526020016004820154815260200160058201548152602001600682015481526020016007820160009054906101000a900460ff161515151581525050915050919050565b6000807f74ac430347543187855945e32428fd50346cee5a128e8593b1cad8758382477d90508091505090565b604051806101000160405280600073ffffffffffffffffffffffffffffffffffffffff168152602001600073ffffffffffffffffffffffffffffffffffffffff168152602001600073ffffffffffffffffffffffffffffffffffffffff168152602001600081526020016000815260200160008152602001600081526020016000151581525090565b600080fd5b6000819050919050565b6102b08161029d565b81146102bb57600080fd5b50565b6000813590506102cd816102a7565b92915050565b6000602082840312156102e9576102e8610298565b5b60006102f7848285016102be565b91505092915050565b600073ffffffffffffffffffffffffffffffffffffffff82169050919050565b600061032b82610300565b9050919050565b61033b81610320565b82525050565b61034a8161029d565b82525050565b60008115159050919050565b61036581610350565b82525050565b610100820160008201516103826000850182610332565b5060208201516103956020850182610332565b5060408201516103a86040850182610332565b5060608201516103bb6060850182610341565b5060808201516103ce6080850182610341565b5060a08201516103e160a0850182610341565b5060c08201516103f460c0850182610341565b5060e082015161040760e085018261035c565b50505050565b600061010082019050610423600083018461036b565b9291505056fea26469706673582212204b99e340f789bb22de407574fd51725f78d229ffd306d274f3f146187a97b6d564736f6c634300081c0033",
        "nonce": "0x2f",
        "chainId": "0x4268"
      },
      "additionalContracts": [],
      "isFixedGasLimit": false
    },
    {
      "hash": "0xf0f0a82d0657d616e29b92daf4b3152c1e28b3f8ca1ee21d1c4b85fb6525147d",
      "transactionType": "CALL",
      "contractName": null,
      "contractAddress": "0x0c65d60940fa4afdb5eefa05d952d72a4d23ff3a",
      "function": "diamondCut((address,uint8,bytes4[])[],address,bytes)",
      "arguments": [
        "[(0x9B74d936Db6e66a670da4A6C8972d3C6C674038e, 0, [0xd028aa62])]",
        "0x0000000000000000000000000000000000000000",
        "0x"
      ],
      "transaction": {
        "from": "0x090f02fac47a0a4e0f38b0118e58b34d45b30625",
        "to": "0x0c65d60940fa4afdb5eefa05d952d72a4d23ff3a",
        "gas": "0x36155",
        "value": "0x0",
        "input": "0x1f931c1c000000000000000000000000000000000000000000000000000000000000006000000000000000000000000000000000000000000000000000000000000000000000000000000000000000000000000000000000000000000000000000000140000000000000000000000000000000000000000000000000000000000000000100000000000000000000000000000000000000000000000000000000000000200000000000000000000000009b74d936db6e66a670da4a6c8972d3c6c674038e000000000000000000000000000000000000000000000000000000000000000000000000000000000000000000000000000000000000000000000000000000600000000000000000000000000000000000000000000000000000000000000001d028aa62000000000000000000000000000000000000000000000000000000000000000000000000000000000000000000000000000000000000000000000000",
        "nonce": "0x30",
        "chainId": "0x4268"
      },
      "additionalContracts": [],
      "isFixedGasLimit": false
    }
  ],
  "receipts": [
    {
      "status": "0x1",
      "cumulativeGasUsed": "0x10cb1a",
      "logs": [],
      "logsBloom": "0x00000000000000000000000000000000000000000000000000000000000000000000000000000000000000000000000000000000000000000000000000000000000000000000000000000000000000000000000000000000000000000000000000000000000000000000000000000000000000000000000000000000000000000000000000000000000000000000000000000000000000000000000000000000000000000000000000000000000000000000000000000000000000000000000000000000000000000000000000000000000000000000000000000000000000000000000000000000000000000000000000000000000000000000000000000000",
      "type": "0x2",
      "transactionHash": "0x092aa12b77b316f9bbf745cd11de0d265c4c2ab9be1b6283e412a5dac8092f29",
      "transactionIndex": "0x6",
      "blockHash": "0x0e7fa9ef0c063986e8c70affd8b9c85f0b88c556535cba43d5de12f1169784bf",
      "blockNumber": "0x287eaf",
      "gasUsed": "0x47fb7",
      "effectiveGasPrice": "0x366648f0",
      "from": "0x090f02fac47a0a4e0f38b0118e58b34d45b30625",
      "to": null,
      "contractAddress": "0x9b74d936db6e66a670da4a6c8972d3c6c674038e"
    },
    {
      "status": "0x1",
      "cumulativeGasUsed": "0x133d97",
      "logs": [
        {
          "address": "0x0c65d60940fa4afdb5eefa05d952d72a4d23ff3a",
          "topics": [
            "0x8faa70878671ccd212d20771b795c50af8fd3ff6cf27f4bde57e5d4de0aeb673"
          ],
          "data": "0x000000000000000000000000000000000000000000000000000000000000006000000000000000000000000000000000000000000000000000000000000000000000000000000000000000000000000000000000000000000000000000000140000000000000000000000000000000000000000000000000000000000000000100000000000000000000000000000000000000000000000000000000000000200000000000000000000000009b74d936db6e66a670da4a6c8972d3c6c674038e000000000000000000000000000000000000000000000000000000000000000000000000000000000000000000000000000000000000000000000000000000600000000000000000000000000000000000000000000000000000000000000001d028aa62000000000000000000000000000000000000000000000000000000000000000000000000000000000000000000000000000000000000000000000000",
          "blockHash": "0x0e7fa9ef0c063986e8c70affd8b9c85f0b88c556535cba43d5de12f1169784bf",
          "blockNumber": "0x287eaf",
          "blockTimestamp": "0x67255434",
          "transactionHash": "0xf0f0a82d0657d616e29b92daf4b3152c1e28b3f8ca1ee21d1c4b85fb6525147d",
          "transactionIndex": "0x7",
          "logIndex": "0x8",
          "removed": false
        }
      ],
      "logsBloom": "0x00000000000000000000000000000000000000000000000000000000000000000000000000200000000000000000000000000000000000000000000000000000000000000000000000000000000000000000000001000000001800000000000000000000000000000000000000000000000000000000000000000000000000000020000000000100000000000000000000000000000000000000000000000000000000000000000000000000000000000000000000000000000000000000000000000000000000000000000000000000000000000000000000000000000000000000000000000000000000000000000000000000000000000000000000000000",
      "type": "0x2",
      "transactionHash": "0xf0f0a82d0657d616e29b92daf4b3152c1e28b3f8ca1ee21d1c4b85fb6525147d",
      "transactionIndex": "0x7",
      "blockHash": "0x0e7fa9ef0c063986e8c70affd8b9c85f0b88c556535cba43d5de12f1169784bf",
      "blockNumber": "0x287eaf",
      "gasUsed": "0x2727d",
      "effectiveGasPrice": "0x366648f0",
      "from": "0x090f02fac47a0a4e0f38b0118e58b34d45b30625",
      "to": "0x0c65d60940fa4afdb5eefa05d952d72a4d23ff3a",
      "contractAddress": null
    }
  ],
  "libraries": [],
  "pending": [],
  "returns": {},
  "timestamp": 1730499681,
  "chain": 17000,
  "commit": "ddff30d"
}