{
  "transactions": [
    {
      "hash": "0xef8cd687ace5b7f73f134b6adcc50337c8195fc0948b43c644218934c60d1ad4",
      "transactionType": "CREATE",
      "contractName": "RepaymentFacet",
      "contractAddress": "0xb26e641b295909c1fc2e6730dd68c416ec8fcd56",
      "function": null,
      "arguments": null,
      "transaction": {
        "from": "0x090f02fac47a0a4e0f38b0118e58b34d45b30625",
        "gas": "0xd92c0",
        "value": "0x0",
        "input": "0x6080604052348015600f57600080fd5b50610b788061001f6000396000f3fe6080604052600436106100295760003560e01c8063ab7b1c891461002e578063d028aa621461004a575b600080fd5b6100486004803603810190610043919061081a565b610087565b005b34801561005657600080fd5b50610071600480360381019061006c919061081a565b6103bd565b60405161007e9190610954565b60405180910390f35b60006100916105a8565b905080600001600083815260200190815260200160002060000160009054906101000a900473ffffffffffffffffffffffffffffffffffffffff1673ffffffffffffffffffffffffffffffffffffffff163373ffffffffffffffffffffffffffffffffffffffff1614610130576040517f4a6315a200000000000000000000000000000000000000000000000000000000815260040160405180910390fd5b80600001600083815260200190815260200160002060070160009054906101000a900460ff161561018d576040517f2ff2465c00000000000000000000000000000000000000000000000000000000815260040160405180910390fd5b600061271082600001600085815260200190815260200160002060050154836000016000868152602001908152602001600020600401546101ce919061099f565b6101d89190610a10565b9050600081836000016000868152602001908152602001600020600401546102009190610a41565b9050803410158190610248576040517febce7ca100000000000000000000000000000000000000000000000000000000815260040161023f9190610a84565b60405180910390fd5b50600183600001600086815260200190815260200160002060070160006101000a81548160ff021916908315150217905550803411156102d5573373ffffffffffffffffffffffffffffffffffffffff166108fc82346102a89190610a9f565b9081150290604051600060405180830381858888f193505050501580156102d3573d6000803e3d6000fd5b505b61032f83600001600086815260200190815260200160002060020160009054906101000a900473ffffffffffffffffffffffffffffffffffffffff16846000016000878152602001908152602001600020600301546105d5565b82600001600085815260200190815260200160002060000160009054906101000a900473ffffffffffffffffffffffffffffffffffffffff1673ffffffffffffffffffffffffffffffffffffffff167f512d3e65b3e58c2187bb1872aa435dba5bd09c1c03823ba56ab70aac411e4a2185836040516103af929190610ad3565b60405180910390a250505050565b6103c5610756565b60006103cf6105a8565b9050806000016000848152602001908152602001600020604051806101000160405290816000820160009054906101000a900473ffffffffffffffffffffffffffffffffffffffff1673ffffffffffffffffffffffffffffffffffffffff1673ffffffffffffffffffffffffffffffffffffffff1681526020016001820160009054906101000a900473ffffffffffffffffffffffffffffffffffffffff1673ffffffffffffffffffffffffffffffffffffffff1673ffffffffffffffffffffffffffffffffffffffff1681526020016002820160009054906101000a900473ffffffffffffffffffffffffffffffffffffffff1673ffffffffffffffffffffffffffffffffffffffff1673ffffffffffffffffffffffffffffffffffffffff168152602001600382015481526020016004820154815260200160058201548152602001600682015481526020016007820160009054906101000a900460ff1615151515815250509150816000015173ffffffffffffffffffffffffffffffffffffffff163373ffffffffffffffffffffffffffffffffffffffff16146105a2576040517fa1f829a900000000000000000000000000000000000000000000000000000000815260040160405180910390fd5b50919050565b6000807f74ac430347543187855945e32428fd50346cee5a128e8593b1cad8758382477d90508091505090565b60006105df6105a8565b90508060040160008473ffffffffffffffffffffffffffffffffffffffff1673ffffffffffffffffffffffffffffffffffffffff168152602001908152602001600020600083815260200190815260200160002060009054906101000a900460ff16610677576040517f14c5f7b600000000000000000000000000000000000000000000000000000000815260040160405180910390fd5b60008160040160008573ffffffffffffffffffffffffffffffffffffffff1673ffffffffffffffffffffffffffffffffffffffff168152602001908152602001600020600084815260200190815260200160002060006101000a81548160ff0219169083151502179055508273ffffffffffffffffffffffffffffffffffffffff166323b872dd3033856040518463ffffffff1660e01b815260040161071f93929190610b0b565b600060405180830381600087803b15801561073957600080fd5b505af115801561074d573d6000803e3d6000fd5b50505050505050565b604051806101000160405280600073ffffffffffffffffffffffffffffffffffffffff168152602001600073ffffffffffffffffffffffffffffffffffffffff168152602001600073ffffffffffffffffffffffffffffffffffffffff168152602001600081526020016000815260200160008152602001600081526020016000151581525090565b600080fd5b6000819050919050565b6107f7816107e4565b811461080257600080fd5b50565b600081359050610814816107ee565b92915050565b6000602082840312156108305761082f6107df565b5b600061083e84828501610805565b91505092915050565b600073ffffffffffffffffffffffffffffffffffffffff82169050919050565b600061087282610847565b9050919050565b61088281610867565b82525050565b610891816107e4565b82525050565b60008115159050919050565b6108ac81610897565b82525050565b610100820160008201516108c96000850182610879565b5060208201516108dc6020850182610879565b5060408201516108ef6040850182610879565b5060608201516109026060850182610888565b5060808201516109156080850182610888565b5060a082015161092860a0850182610888565b5060c082015161093b60c0850182610888565b5060e082015161094e60e08501826108a3565b50505050565b60006101008201905061096a60008301846108b2565b92915050565b7f4e487b7100000000000000000000000000000000000000000000000000000000600052601160045260246000fd5b60006109aa826107e4565b91506109b5836107e4565b92508282026109c3816107e4565b915082820484148315176109da576109d9610970565b5b5092915050565b7f4e487b7100000000000000000000000000000000000000000000000000000000600052601260045260246000fd5b6000610a1b826107e4565b9150610a26836107e4565b925082610a3657610a356109e1565b5b828204905092915050565b6000610a4c826107e4565b9150610a57836107e4565b9250828201905080821115610a6f57610a6e610970565b5b92915050565b610a7e816107e4565b82525050565b6000602082019050610a996000830184610a75565b92915050565b6000610aaa826107e4565b9150610ab5836107e4565b9250828203905081811115610acd57610acc610970565b5b92915050565b6000604082019050610ae86000830185610a75565b610af56020830184610a75565b9392505050565b610b0581610867565b82525050565b6000606082019050610b206000830186610afc565b610b2d6020830185610afc565b610b3a6040830184610a75565b94935050505056fea26469706673582212205662a8d7c062160fc9919e5425484746a84e24e94206037a0f642626de521e3e64736f6c634300081c0033",
        "nonce": "0x3f",
        "chainId": "0x4268"
      },
      "additionalContracts": [],
      "isFixedGasLimit": false
    },
    {
      "hash": "0xda9d8f75c06beab88d0cedde477a31853a87bebd9509708a1a7bc649cfde12a3",
      "transactionType": "CALL",
      "contractName": null,
      "contractAddress": "0x0c65d60940fa4afdb5eefa05d952d72a4d23ff3a",
      "function": "diamondCut((address,uint8,bytes4[])[],address,bytes)",
      "arguments": [
        "[(0xb26e641b295909c1fc2E6730Dd68c416EC8fcd56, 1, [0xab7b1c89, 0xd028aa62])]",
        "0x0000000000000000000000000000000000000000",
        "0x"
      ],
      "transaction": {
        "from": "0x090f02fac47a0a4e0f38b0118e58b34d45b30625",
        "to": "0x0c65d60940fa4afdb5eefa05d952d72a4d23ff3a",
        "gas": "0x303b5",
        "value": "0x0",
        "input": "0x1f931c1c00000000000000000000000000000000000000000000000000000000000000600000000000000000000000000000000000000000000000000000000000000000000000000000000000000000000000000000000000000000000000000000016000000000000000000000000000000000000000000000000000000000000000010000000000000000000000000000000000000000000000000000000000000020000000000000000000000000b26e641b295909c1fc2e6730dd68c416ec8fcd56000000000000000000000000000000000000000000000000000000000000000100000000000000000000000000000000000000000000000000000000000000600000000000000000000000000000000000000000000000000000000000000002ab7b1c8900000000000000000000000000000000000000000000000000000000d028aa62000000000000000000000000000000000000000000000000000000000000000000000000000000000000000000000000000000000000000000000000",
        "nonce": "0x40",
        "chainId": "0x4268"
      },
      "additionalContracts": [],
      "isFixedGasLimit": false
    }
  ],
  "receipts": [
    {
      "status": "0x1",
      "cumulativeGasUsed": "0x1dd832",
      "logs": [],
      "logsBloom": "0x00000000000000000000000000000000000000000000000000000000000000000000000000000000000000000000000000000000000000000000000000000000000000000000000000000000000000000000000000000000000000000000000000000000000000000000000000000000000000000000000000000000000000000000000000000000000000000000000000000000000000000000000000000000000000000000000000000000000000000000000000000000000000000000000000000000000000000000000000000000000000000000000000000000000000000000000000000000000000000000000000000000000000000000000000000000",
      "type": "0x2",
      "transactionHash": "0xef8cd687ace5b7f73f134b6adcc50337c8195fc0948b43c644218934c60d1ad4",
      "transactionIndex": "0x7",
      "blockHash": "0xd16067bb5699a4fac3a262601de5c9ac072acab113a79d186187586d3fe4decd",
      "blockNumber": "0x2881f6",
      "gasUsed": "0xa719d",
      "effectiveGasPrice": "0x1de3231a",
      "from": "0x090f02fac47a0a4e0f38b0118e58b34d45b30625",
      "to": null,
      "contractAddress": "0xb26e641b295909c1fc2e6730dd68c416ec8fcd56"
    },
    {
      "status": "0x1",
      "cumulativeGasUsed": "0x2006e6",
      "logs": [
        {
          "address": "0x0c65d60940fa4afdb5eefa05d952d72a4d23ff3a",
          "topics": [
            "0x8faa70878671ccd212d20771b795c50af8fd3ff6cf27f4bde57e5d4de0aeb673"
          ],
          "data": "0x00000000000000000000000000000000000000000000000000000000000000600000000000000000000000000000000000000000000000000000000000000000000000000000000000000000000000000000000000000000000000000000016000000000000000000000000000000000000000000000000000000000000000010000000000000000000000000000000000000000000000000000000000000020000000000000000000000000b26e641b295909c1fc2e6730dd68c416ec8fcd56000000000000000000000000000000000000000000000000000000000000000100000000000000000000000000000000000000000000000000000000000000600000000000000000000000000000000000000000000000000000000000000002ab7b1c8900000000000000000000000000000000000000000000000000000000d028aa62000000000000000000000000000000000000000000000000000000000000000000000000000000000000000000000000000000000000000000000000",
          "blockHash": "0xd16067bb5699a4fac3a262601de5c9ac072acab113a79d186187586d3fe4decd",
          "blockNumber": "0x2881f6",
          "blockTimestamp": "0x67257f84",
          "transactionHash": "0xda9d8f75c06beab88d0cedde477a31853a87bebd9509708a1a7bc649cfde12a3",
          "transactionIndex": "0x8",
          "logIndex": "0xc",
          "removed": false
        }
      ],
      "logsBloom": "0x00000000000000000000000000000000000000000000000000000000000000000000000000200000000000000000000000000000000000000000000000000000000000000000000000000000000000000000000001000000001800000000000000000000000000000000000000000000000000000000000000000000000000000020000000000100000000000000000000000000000000000000000000000000000000000000000000000000000000000000000000000000000000000000000000000000000000000000000000000000000000000000000000000000000000000000000000000000000000000000000000000000000000000000000000000000",
      "type": "0x2",
      "transactionHash": "0xda9d8f75c06beab88d0cedde477a31853a87bebd9509708a1a7bc649cfde12a3",
      "transactionIndex": "0x8",
      "blockHash": "0xd16067bb5699a4fac3a262601de5c9ac072acab113a79d186187586d3fe4decd",
      "blockNumber": "0x2881f6",
      "gasUsed": "0x22eb4",
      "effectiveGasPrice": "0x1de3231a",
      "from": "0x090f02fac47a0a4e0f38b0118e58b34d45b30625",
      "to": "0x0c65d60940fa4afdb5eefa05d952d72a4d23ff3a",
      "contractAddress": null
    }
  ],
  "libraries": [],
  "pending": [],
  "returns": {},
  "timestamp": 1730510751,
  "chain": 17000,
  "commit": "fc97a15"
}