{
  "transactions": [
    {
      "hash": "0x7b3a98aab3decfa3dadae2da48efe4543673a9abaebbc9f15d4f7d0365e050ba",
      "transactionType": "CREATE",
      "contractName": "RepaymentFacet",
      "contractAddress": "0x24730e10d8d853f705914f1d261e57840a0cc0fc",
      "function": null,
      "arguments": null,
      "transaction": {
        "from": "0x090f02fac47a0a4e0f38b0118e58b34d45b30625",
        "gas": "0xca91b",
        "value": "0x0",
        "input": "0x6080604052348015600f57600080fd5b50610aa18061001f6000396000f3fe6080604052600436106100295760003560e01c8063ab7b1c891461002e578063d028aa621461004a575b600080fd5b6100486004803603810190610043919061076c565b610087565b005b34801561005657600080fd5b50610071600480360381019061006c919061076c565b610378565b60405161007e91906108a6565b60405180910390f35b60006100916104fa565b9050600081600001600084815260200190815260200160002060000160009054906101000a900473ffffffffffffffffffffffffffffffffffffffff16905060008260000160008581526020019081526020016000206004015490508173ffffffffffffffffffffffffffffffffffffffff163373ffffffffffffffffffffffffffffffffffffffff1614610152576040517f4a6315a200000000000000000000000000000000000000000000000000000000815260040160405180910390fd5b82600001600085815260200190815260200160002060070160009054906101000a900460ff16156101af576040517f2ff2465c00000000000000000000000000000000000000000000000000000000815260040160405180910390fd5b600061271084600001600087815260200190815260200160002060050154836101d891906108f1565b6101e29190610962565b9050600081836101f29190610993565b905080341015819061023a576040517febce7ca100000000000000000000000000000000000000000000000000000000815260040161023191906109d6565b60405180910390fd5b50600185600001600088815260200190815260200160002060070160006101000a81548160ff021916908315150217905550803411156102c7573373ffffffffffffffffffffffffffffffffffffffff166108fc823461029a91906109f1565b9081150290604051600060405180830381858888f193505050501580156102c5573d6000803e3d6000fd5b505b61032185600001600088815260200190815260200160002060020160009054906101000a900473ffffffffffffffffffffffffffffffffffffffff1686600001600089815260200190815260200160002060030154610527565b8373ffffffffffffffffffffffffffffffffffffffff16867f512d3e65b3e58c2187bb1872aa435dba5bd09c1c03823ba56ab70aac411e4a218360405161036891906109d6565b60405180910390a3505050505050565b6103806106a8565b600061038a6104fa565b9050806000016000848152602001908152602001600020604051806101000160405290816000820160009054906101000a900473ffffffffffffffffffffffffffffffffffffffff1673ffffffffffffffffffffffffffffffffffffffff1673ffffffffffffffffffffffffffffffffffffffff1681526020016001820160009054906101000a900473ffffffffffffffffffffffffffffffffffffffff1673ffffffffffffffffffffffffffffffffffffffff1673ffffffffffffffffffffffffffffffffffffffff1681526020016002820160009054906101000a900473ffffffffffffffffffffffffffffffffffffffff1673ffffffffffffffffffffffffffffffffffffffff1673ffffffffffffffffffffffffffffffffffffffff168152602001600382015481526020016004820154815260200160058201548152602001600682015481526020016007820160009054906101000a900460ff161515151581525050915050919050565b6000807f74ac430347543187855945e32428fd50346cee5a128e8593b1cad8758382477d90508091505090565b60006105316104fa565b90508060040160008473ffffffffffffffffffffffffffffffffffffffff1673ffffffffffffffffffffffffffffffffffffffff168152602001908152602001600020600083815260200190815260200160002060009054906101000a900460ff166105c9576040517f14c5f7b600000000000000000000000000000000000000000000000000000000815260040160405180910390fd5b60008160040160008573ffffffffffffffffffffffffffffffffffffffff1673ffffffffffffffffffffffffffffffffffffffff168152602001908152602001600020600084815260200190815260200160002060006101000a81548160ff0219169083151502179055508273ffffffffffffffffffffffffffffffffffffffff166323b872dd3033856040518463ffffffff1660e01b815260040161067193929190610a34565b600060405180830381600087803b15801561068b57600080fd5b505af115801561069f573d6000803e3d6000fd5b50505050505050565b604051806101000160405280600073ffffffffffffffffffffffffffffffffffffffff168152602001600073ffffffffffffffffffffffffffffffffffffffff168152602001600073ffffffffffffffffffffffffffffffffffffffff168152602001600081526020016000815260200160008152602001600081526020016000151581525090565b600080fd5b6000819050919050565b61074981610736565b811461075457600080fd5b50565b60008135905061076681610740565b92915050565b60006020828403121561078257610781610731565b5b600061079084828501610757565b91505092915050565b600073ffffffffffffffffffffffffffffffffffffffff82169050919050565b60006107c482610799565b9050919050565b6107d4816107b9565b82525050565b6107e381610736565b82525050565b60008115159050919050565b6107fe816107e9565b82525050565b6101008201600082015161081b60008501826107cb565b50602082015161082e60208501826107cb565b50604082015161084160408501826107cb565b50606082015161085460608501826107da565b50608082015161086760808501826107da565b5060a082015161087a60a08501826107da565b5060c082015161088d60c08501826107da565b5060e08201516108a060e08501826107f5565b50505050565b6000610100820190506108bc6000830184610804565b92915050565b7f4e487b7100000000000000000000000000000000000000000000000000000000600052601160045260246000fd5b60006108fc82610736565b915061090783610736565b925082820261091581610736565b9150828204841483151761092c5761092b6108c2565b5b5092915050565b7f4e487b7100000000000000000000000000000000000000000000000000000000600052601260045260246000fd5b600061096d82610736565b915061097883610736565b92508261098857610987610933565b5b828204905092915050565b600061099e82610736565b91506109a983610736565b92508282019050808211156109c1576109c06108c2565b5b92915050565b6109d081610736565b82525050565b60006020820190506109eb60008301846109c7565b92915050565b60006109fc82610736565b9150610a0783610736565b9250828203905081811115610a1f57610a1e6108c2565b5b92915050565b610a2e816107b9565b82525050565b6000606082019050610a496000830186610a25565b610a566020830185610a25565b610a6360408301846109c7565b94935050505056fea2646970667358221220c90a6910123dae158eb263d0ff12cabc7fb28abfd9d5b3d623c4da83411108c764736f6c634300081c0033",
        "nonce": "0x5a",
        "chainId": "0x4268"
      },
      "additionalContracts": [],
      "isFixedGasLimit": false
    },
    {
      "hash": "0x16d8a18e811556bd823ab73642f542814988e1168920c93f191196f12128bd1e",
      "transactionType": "CALL",
      "contractName": null,
      "contractAddress": "0x0c65d60940fa4afdb5eefa05d952d72a4d23ff3a",
      "function": "diamondCut((address,uint8,bytes4[])[],address,bytes)",
      "arguments": [
        "[(0x24730e10d8D853F705914F1D261E57840a0CC0FC, 1, [0xab7b1c89, 0xd028aa62])]",
        "0x0000000000000000000000000000000000000000",
        "0x"
      ],
      "transaction": {
        "from": "0x090f02fac47a0a4e0f38b0118e58b34d45b30625",
        "to": "0x0c65d60940fa4afdb5eefa05d952d72a4d23ff3a",
        "gas": "0x303b5",
        "value": "0x0",
        "input": "0x1f931c1c0000000000000000000000000000000000000000000000000000000000000060000000000000000000000000000000000000000000000000000000000000000000000000000000000000000000000000000000000000000000000000000001600000000000000000000000000000000000000000000000000000000000000001000000000000000000000000000000000000000000000000000000000000002000000000000000000000000024730e10d8d853f705914f1d261e57840a0cc0fc000000000000000000000000000000000000000000000000000000000000000100000000000000000000000000000000000000000000000000000000000000600000000000000000000000000000000000000000000000000000000000000002ab7b1c8900000000000000000000000000000000000000000000000000000000d028aa62000000000000000000000000000000000000000000000000000000000000000000000000000000000000000000000000000000000000000000000000",
        "nonce": "0x5b",
        "chainId": "0x4268"
      },
      "additionalContracts": [],
      "isFixedGasLimit": false
    }
  ],
  "receipts": [
    {
      "status": "0x1",
      "cumulativeGasUsed": "0x188f051",
      "logs": [],
      "logsBloom": "0x00000000000000000000000000000000000000000000000000000000000000000000000000000000000000000000000000000000000000000000000000000000000000000000000000000000000000000000000000000000000000000000000000000000000000000000000000000000000000000000000000000000000000000000000000000000000000000000000000000000000000000000000000000000000000000000000000000000000000000000000000000000000000000000000000000000000000000000000000000000000000000000000000000000000000000000000000000000000000000000000000000000000000000000000000000000",
      "type": "0x2",
      "transactionHash": "0x7b3a98aab3decfa3dadae2da48efe4543673a9abaebbc9f15d4f7d0365e050ba",
      "transactionIndex": "0x36",
      "blockHash": "0x5d0d5d21fab113b0b576fa703c9f972f887aafe662f4e07f468bff7ebc848a92",
      "blockNumber": "0x2889d6",
      "gasUsed": "0x9bdd5",
      "effectiveGasPrice": "0x2e79c8b",
      "from": "0x090f02fac47a0a4e0f38b0118e58b34d45b30625",
      "to": null,
      "contractAddress": "0x24730e10d8d853f705914f1d261e57840a0cc0fc"
    },
    {
      "status": "0x1",
      "cumulativeGasUsed": "0x18b1f05",
      "logs": [
        {
          "address": "0x0c65d60940fa4afdb5eefa05d952d72a4d23ff3a",
          "topics": [
            "0x8faa70878671ccd212d20771b795c50af8fd3ff6cf27f4bde57e5d4de0aeb673"
          ],
          "data": "0x0000000000000000000000000000000000000000000000000000000000000060000000000000000000000000000000000000000000000000000000000000000000000000000000000000000000000000000000000000000000000000000001600000000000000000000000000000000000000000000000000000000000000001000000000000000000000000000000000000000000000000000000000000002000000000000000000000000024730e10d8d853f705914f1d261e57840a0cc0fc000000000000000000000000000000000000000000000000000000000000000100000000000000000000000000000000000000000000000000000000000000600000000000000000000000000000000000000000000000000000000000000002ab7b1c8900000000000000000000000000000000000000000000000000000000d028aa62000000000000000000000000000000000000000000000000000000000000000000000000000000000000000000000000000000000000000000000000",
          "blockHash": "0x5d0d5d21fab113b0b576fa703c9f972f887aafe662f4e07f468bff7ebc848a92",
          "blockNumber": "0x2889d6",
          "blockTimestamp": "0x6725e5d8",
          "transactionHash": "0x16d8a18e811556bd823ab73642f542814988e1168920c93f191196f12128bd1e",
          "transactionIndex": "0x37",
          "logIndex": "0x6c",
          "removed": false
        }
      ],
      "logsBloom": "0x00000000000000000000000000000000000000000000000000000000000000000000000000200000000000000000000000000000000000000000000000000000000000000000000000000000000000000000000001000000001800000000000000000000000000000000000000000000000000000000000000000000000000000020000000000100000000000000000000000000000000000000000000000000000000000000000000000000000000000000000000000000000000000000000000000000000000000000000000000000000000000000000000000000000000000000000000000000000000000000000000000000000000000000000000000000",
      "type": "0x2",
      "transactionHash": "0x16d8a18e811556bd823ab73642f542814988e1168920c93f191196f12128bd1e",
      "transactionIndex": "0x37",
      "blockHash": "0x5d0d5d21fab113b0b576fa703c9f972f887aafe662f4e07f468bff7ebc848a92",
      "blockNumber": "0x2889d6",
      "gasUsed": "0x22eb4",
      "effectiveGasPrice": "0x2e79c8b",
      "from": "0x090f02fac47a0a4e0f38b0118e58b34d45b30625",
      "to": "0x0c65d60940fa4afdb5eefa05d952d72a4d23ff3a",
      "contractAddress": null
    }
  ],
  "libraries": [],
  "pending": [],
  "returns": {},
  "timestamp": 1730536954,
  "chain": 17000,
  "commit": "a2e2277"
}