{
  "transactions": [
    {
      "hash": "0x5afeca5a977c366e77c2f836af5a2027afba0c33b7fe761b1e286f0d7624ed67",
      "transactionType": "CREATE",
      "contractName": "RepaymentFacet",
      "contractAddress": "0xd20d4b82d77e11b05bfb3403803a19a726ea16f5",
      "function": null,
      "arguments": null,
      "transaction": {
        "from": "0x090f02fac47a0a4e0f38b0118e58b34d45b30625",
        "gas": "0xc79a2",
        "value": "0x0",
        "input": "0x6080604052348015600f57600080fd5b50610a758061001f6000396000f3fe6080604052600436106100295760003560e01c8063ab7b1c891461002e578063d028aa621461004a575b600080fd5b61004860048036038101906100439190610717565b610087565b005b34801561005657600080fd5b50610071600480360381019061006c9190610717565b610323565b60405161007e9190610851565b60405180910390f35b60006100916104a5565b9050600081600001600084815260200190815260200160002090508060000160009054906101000a900473ffffffffffffffffffffffffffffffffffffffff1673ffffffffffffffffffffffffffffffffffffffff163373ffffffffffffffffffffffffffffffffffffffff1614610135576040517f4a6315a200000000000000000000000000000000000000000000000000000000815260040160405180910390fd5b8060070160009054906101000a900460ff161561017e576040517f2ff2465c00000000000000000000000000000000000000000000000000000000815260040160405180910390fd5b600061271082600501548360040154610197919061089c565b6101a1919061090d565b905060008183600401546101b5919061093e565b90508034101581906101fd576040517febce7ca10000000000000000000000000000000000000000000000000000000081526004016101f49190610981565b60405180910390fd5b5060018360070160006101000a81548160ff02191690831515021790555080341115610276573373ffffffffffffffffffffffffffffffffffffffff166108fc8234610249919061099c565b9081150290604051600060405180830381858888f19350505050158015610274573d6000803e3d6000fd5b505b6102a88360020160009054906101000a900473ffffffffffffffffffffffffffffffffffffffff1684600301546104d2565b8260000160009054906101000a900473ffffffffffffffffffffffffffffffffffffffff1673ffffffffffffffffffffffffffffffffffffffff167f512d3e65b3e58c2187bb1872aa435dba5bd09c1c03823ba56ab70aac411e4a2186836040516103149291906109d0565b60405180910390a25050505050565b61032b610653565b60006103356104a5565b9050806000016000848152602001908152602001600020604051806101000160405290816000820160009054906101000a900473ffffffffffffffffffffffffffffffffffffffff1673ffffffffffffffffffffffffffffffffffffffff1673ffffffffffffffffffffffffffffffffffffffff1681526020016001820160009054906101000a900473ffffffffffffffffffffffffffffffffffffffff1673ffffffffffffffffffffffffffffffffffffffff1673ffffffffffffffffffffffffffffffffffffffff1681526020016002820160009054906101000a900473ffffffffffffffffffffffffffffffffffffffff1673ffffffffffffffffffffffffffffffffffffffff1673ffffffffffffffffffffffffffffffffffffffff168152602001600382015481526020016004820154815260200160058201548152602001600682015481526020016007820160009054906101000a900460ff161515151581525050915050919050565b6000807f74ac430347543187855945e32428fd50346cee5a128e8593b1cad8758382477d90508091505090565b60006104dc6104a5565b90508060040160008473ffffffffffffffffffffffffffffffffffffffff1673ffffffffffffffffffffffffffffffffffffffff168152602001908152602001600020600083815260200190815260200160002060009054906101000a900460ff16610574576040517f14c5f7b600000000000000000000000000000000000000000000000000000000815260040160405180910390fd5b60008160040160008573ffffffffffffffffffffffffffffffffffffffff1673ffffffffffffffffffffffffffffffffffffffff168152602001908152602001600020600084815260200190815260200160002060006101000a81548160ff0219169083151502179055508273ffffffffffffffffffffffffffffffffffffffff166323b872dd3033856040518463ffffffff1660e01b815260040161061c93929190610a08565b600060405180830381600087803b15801561063657600080fd5b505af115801561064a573d6000803e3d6000fd5b50505050505050565b604051806101000160405280600073ffffffffffffffffffffffffffffffffffffffff168152602001600073ffffffffffffffffffffffffffffffffffffffff168152602001600073ffffffffffffffffffffffffffffffffffffffff168152602001600081526020016000815260200160008152602001600081526020016000151581525090565b600080fd5b6000819050919050565b6106f4816106e1565b81146106ff57600080fd5b50565b600081359050610711816106eb565b92915050565b60006020828403121561072d5761072c6106dc565b5b600061073b84828501610702565b91505092915050565b600073ffffffffffffffffffffffffffffffffffffffff82169050919050565b600061076f82610744565b9050919050565b61077f81610764565b82525050565b61078e816106e1565b82525050565b60008115159050919050565b6107a981610794565b82525050565b610100820160008201516107c66000850182610776565b5060208201516107d96020850182610776565b5060408201516107ec6040850182610776565b5060608201516107ff6060850182610785565b5060808201516108126080850182610785565b5060a082015161082560a0850182610785565b5060c082015161083860c0850182610785565b5060e082015161084b60e08501826107a0565b50505050565b60006101008201905061086760008301846107af565b92915050565b7f4e487b7100000000000000000000000000000000000000000000000000000000600052601160045260246000fd5b60006108a7826106e1565b91506108b2836106e1565b92508282026108c0816106e1565b915082820484148315176108d7576108d661086d565b5b5092915050565b7f4e487b7100000000000000000000000000000000000000000000000000000000600052601260045260246000fd5b6000610918826106e1565b9150610923836106e1565b925082610933576109326108de565b5b828204905092915050565b6000610949826106e1565b9150610954836106e1565b925082820190508082111561096c5761096b61086d565b5b92915050565b61097b816106e1565b82525050565b60006020820190506109966000830184610972565b92915050565b60006109a7826106e1565b91506109b2836106e1565b92508282039050818111156109ca576109c961086d565b5b92915050565b60006040820190506109e56000830185610972565b6109f26020830184610972565b9392505050565b610a0281610764565b82525050565b6000606082019050610a1d60008301866109f9565b610a2a60208301856109f9565b610a376040830184610972565b94935050505056fea2646970667358221220fc5aac99252f837fd2dbd19cdccfd3d06e5ebf4a07f55426b958cfbc19793ec964736f6c634300081c0033",
        "nonce": "0x36",
        "chainId": "0x4268"
      },
      "additionalContracts": [],
      "isFixedGasLimit": false
    },
    {
      "hash": "0x87505177df056a48a2e27e75bf82bf6b87e651849c64612f625f1be113fc33b7",
      "transactionType": "CALL",
      "contractName": null,
      "contractAddress": "0x0c65d60940fa4afdb5eefa05d952d72a4d23ff3a",
      "function": "diamondCut((address,uint8,bytes4[])[],address,bytes)",
      "arguments": [
        "[(0xd20D4b82d77E11b05bfB3403803a19a726Ea16f5, 1, [0xab7b1c89, 0xd028aa62])]",
        "0x0000000000000000000000000000000000000000",
        "0x"
      ],
      "transaction": {
        "from": "0x090f02fac47a0a4e0f38b0118e58b34d45b30625",
        "to": "0x0c65d60940fa4afdb5eefa05d952d72a4d23ff3a",
        "gas": "0x39466",
        "value": "0x0",
        "input": "0x1f931c1c00000000000000000000000000000000000000000000000000000000000000600000000000000000000000000000000000000000000000000000000000000000000000000000000000000000000000000000000000000000000000000000016000000000000000000000000000000000000000000000000000000000000000010000000000000000000000000000000000000000000000000000000000000020000000000000000000000000d20d4b82d77e11b05bfb3403803a19a726ea16f5000000000000000000000000000000000000000000000000000000000000000100000000000000000000000000000000000000000000000000000000000000600000000000000000000000000000000000000000000000000000000000000002ab7b1c8900000000000000000000000000000000000000000000000000000000d028aa62000000000000000000000000000000000000000000000000000000000000000000000000000000000000000000000000000000000000000000000000",
        "nonce": "0x37",
        "chainId": "0x4268"
      },
      "additionalContracts": [],
      "isFixedGasLimit": false
    }
  ],
  "receipts": [
    {
      "status": "0x1",
      "cumulativeGasUsed": "0x148de3",
      "logs": [],
      "logsBloom": "0x00000000000000000000000000000000000000000000000000000000000000000000000000000000000000000000000000000000000000000000000000000000000000000000000000000000000000000000000000000000000000000000000000000000000000000000000000000000000000000000000000000000000000000000000000000000000000000000000000000000000000000000000000000000000000000000000000000000000000000000000000000000000000000000000000000000000000000000000000000000000000000000000000000000000000000000000000000000000000000000000000000000000000000000000000000000",
      "type": "0x2",
      "transactionHash": "0x5afeca5a977c366e77c2f836af5a2027afba0c33b7fe761b1e286f0d7624ed67",
      "transactionIndex": "0xb",
      "blockHash": "0x2c4faed23d8c0cd668cd319a39e47dab762c32a4fed47a71632146f47c38989c",
      "blockNumber": "0x287f8b",
      "gasUsed": "0x9994e",
      "effectiveGasPrice": "0x2d50349b",
      "from": "0x090f02fac47a0a4e0f38b0118e58b34d45b30625",
      "to": null,
      "contractAddress": "0xd20d4b82d77e11b05bfb3403803a19a726ea16f5"
    },
    {
      "status": "0x1",
      "cumulativeGasUsed": "0x17007c",
      "logs": [
        {
          "address": "0x0c65d60940fa4afdb5eefa05d952d72a4d23ff3a",
          "topics": [
            "0x8faa70878671ccd212d20771b795c50af8fd3ff6cf27f4bde57e5d4de0aeb673"
          ],
          "data": "0x00000000000000000000000000000000000000000000000000000000000000600000000000000000000000000000000000000000000000000000000000000000000000000000000000000000000000000000000000000000000000000000016000000000000000000000000000000000000000000000000000000000000000010000000000000000000000000000000000000000000000000000000000000020000000000000000000000000d20d4b82d77e11b05bfb3403803a19a726ea16f5000000000000000000000000000000000000000000000000000000000000000100000000000000000000000000000000000000000000000000000000000000600000000000000000000000000000000000000000000000000000000000000002ab7b1c8900000000000000000000000000000000000000000000000000000000d028aa62000000000000000000000000000000000000000000000000000000000000000000000000000000000000000000000000000000000000000000000000",
          "blockHash": "0x2c4faed23d8c0cd668cd319a39e47dab762c32a4fed47a71632146f47c38989c",
          "blockNumber": "0x287f8b",
          "blockTimestamp": "0x67255f5c",
          "transactionHash": "0x87505177df056a48a2e27e75bf82bf6b87e651849c64612f625f1be113fc33b7",
          "transactionIndex": "0xc",
          "logIndex": "0x9",
          "removed": false
        }
      ],
      "logsBloom": "0x00000000000000000000000000000000000000000000000000000000000000000000000000200000000000000000000000000000000000000000000000000000000000000000000000000000000000000000000001000000001800000000000000000000000000000000000000000000000000000000000000000000000000000020000000000100000000000000000000000000000000000000000000000000000000000000000000000000000000000000000000000000000000000000000000000000000000000000000000000000000000000000000000000000000000000000000000000000000000000000000000000000000000000000000000000000",
      "type": "0x2",
      "transactionHash": "0x87505177df056a48a2e27e75bf82bf6b87e651849c64612f625f1be113fc33b7",
      "transactionIndex": "0xc",
      "blockHash": "0x2c4faed23d8c0cd668cd319a39e47dab762c32a4fed47a71632146f47c38989c",
      "blockNumber": "0x287f8b",
      "gasUsed": "0x27299",
      "effectiveGasPrice": "0x2d50349b",
      "from": "0x090f02fac47a0a4e0f38b0118e58b34d45b30625",
      "to": "0x0c65d60940fa4afdb5eefa05d952d72a4d23ff3a",
      "contractAddress": null
    }
  ],
  "libraries": [],
  "pending": [],
  "returns": {},
  "timestamp": 1730502528,
  "chain": 17000,
  "commit": "ddff30d"
}