{
  "transactions": [
    {
      "hash": "0xb9bdc06f81a31e0442184aa8782a4d68df37b0ae6ddeaf01ab8d9432ca05864b",
      "transactionType": "CREATE",
      "contractName": "WithdrawFacet",
      "contractAddress": "0x5671fb59d45179177e62713f8d3bb10fa507b674",
      "function": null,
      "arguments": null,
      "transaction": {
        "from": "0x090f02fac47a0a4e0f38b0118e58b34d45b30625",
        "gas": "0x41e54",
        "value": "0x0",
        "input": "0x6080604052348015600f57600080fd5b506102ce8061001f6000396000f3fe608060405234801561001057600080fd5b506004361061002b5760003560e01c8063ce76756f14610030575b600080fd5b61003861003a565b005b61004261012c565b600047905060006100516101be565b73ffffffffffffffffffffffffffffffffffffffff16826040516100749061024f565b60006040518083038185875af1925050503d80600081146100b1576040519150601f19603f3d011682016040523d82523d6000602084013e6100b6565b606091505b50509050806100f1576040517f27fcd9d100000000000000000000000000000000000000000000000000000000815260040160405180910390fd5b7f8030349df01c447169490954f7d7e84fced918106c79dc48fa0560bba769086f82604051610120919061027d565b60405180910390a15050565b6101346101f1565b60040160009054906101000a900473ffffffffffffffffffffffffffffffffffffffff1673ffffffffffffffffffffffffffffffffffffffff163373ffffffffffffffffffffffffffffffffffffffff16146101bc576040517f3058081000000000000000000000000000000000000000000000000000000000815260040160405180910390fd5b565b60006101c86101f1565b60040160009054906101000a900473ffffffffffffffffffffffffffffffffffffffff16905090565b6000807fc8fcad8db84d3cc18b4c41d551ea0ee66dd599cde068d998e57d5e09332c131c90508091505090565b600081905092915050565b50565b600061023960008361021e565b915061024482610229565b600082019050919050565b600061025a8261022c565b9150819050919050565b6000819050919050565b61027781610264565b82525050565b6000602082019050610292600083018461026e565b9291505056fea264697066735822122024d9def1d5f0ebd5fa26c118828ba13238e2fe5776f171aa2c36c20b7e3598f064736f6c634300081c0033",
        "nonce": "0x2b",
        "chainId": "0x4268"
      },
      "additionalContracts": [],
      "isFixedGasLimit": false
    },
    {
      "hash": "0xd8f98c88cf3f51773f03b4949dfe13074345eb28ba87bc529c07add0f155a91d",
      "transactionType": "CALL",
      "contractName": null,
      "contractAddress": "0x0c65d60940fa4afdb5eefa05d952d72a4d23ff3a",
      "function": "diamondCut((address,uint8,bytes4[])[],address,bytes)",
      "arguments": [
        "[(0x5671Fb59D45179177E62713f8D3bB10fa507B674, 0, [0xce76756f])]",
        "0x0000000000000000000000000000000000000000",
        "0x"
      ],
      "transaction": {
        "from": "0x090f02fac47a0a4e0f38b0118e58b34d45b30625",
        "to": "0x0c65d60940fa4afdb5eefa05d952d72a4d23ff3a",
        "gas": "0x36155",
        "value": "0x0",
        "input": "0x1f931c1c000000000000000000000000000000000000000000000000000000000000006000000000000000000000000000000000000000000000000000000000000000000000000000000000000000000000000000000000000000000000000000000140000000000000000000000000000000000000000000000000000000000000000100000000000000000000000000000000000000000000000000000000000000200000000000000000000000005671fb59d45179177e62713f8d3bb10fa507b674000000000000000000000000000000000000000000000000000000000000000000000000000000000000000000000000000000000000000000000000000000600000000000000000000000000000000000000000000000000000000000000001ce76756f000000000000000000000000000000000000000000000000000000000000000000000000000000000000000000000000000000000000000000000000",
        "nonce": "0x2c",
        "chainId": "0x4268"
      },
      "additionalContracts": [],
      "isFixedGasLimit": false
    }
  ],
  "receipts": [
    {
      "status": "0x1",
      "cumulativeGasUsed": "0x273954",
      "logs": [],
      "logsBloom": "0x00000000000000000000000000000000000000000000000000000000000000000000000000000000000000000000000000000000000000000000000000000000000000000000000000000000000000000000000000000000000000000000000000000000000000000000000000000000000000000000000000000000000000000000000000000000000000000000000000000000000000000000000000000000000000000000000000000000000000000000000000000000000000000000000000000000000000000000000000000000000000000000000000000000000000000000000000000000000000000000000000000000000000000000000000000000",
      "type": "0x2",
      "transactionHash": "0xb9bdc06f81a31e0442184aa8782a4d68df37b0ae6ddeaf01ab8d9432ca05864b",
      "transactionIndex": "0xe",
      "blockHash": "0xacc1c616a417ad1f97bd12afe6fd3085631d4569b4b0ffd3d3009f2d3bb8525c",
      "blockNumber": "0x287823",
      "gasUsed": "0x32b36",
      "effectiveGasPrice": "0x11e97638",
      "from": "0x090f02fac47a0a4e0f38b0118e58b34d45b30625",
      "to": null,
      "contractAddress": "0x5671fb59d45179177e62713f8d3bb10fa507b674"
    },
    {
      "status": "0x1",
      "cumulativeGasUsed": "0x29abd1",
      "logs": [
        {
          "address": "0x0c65d60940fa4afdb5eefa05d952d72a4d23ff3a",
          "topics": [
            "0x8faa70878671ccd212d20771b795c50af8fd3ff6cf27f4bde57e5d4de0aeb673"
          ],
          "data": "0x000000000000000000000000000000000000000000000000000000000000006000000000000000000000000000000000000000000000000000000000000000000000000000000000000000000000000000000000000000000000000000000140000000000000000000000000000000000000000000000000000000000000000100000000000000000000000000000000000000000000000000000000000000200000000000000000000000005671fb59d45179177e62713f8d3bb10fa507b674000000000000000000000000000000000000000000000000000000000000000000000000000000000000000000000000000000000000000000000000000000600000000000000000000000000000000000000000000000000000000000000001ce76756f000000000000000000000000000000000000000000000000000000000000000000000000000000000000000000000000000000000000000000000000",
          "blockHash": "0xacc1c616a417ad1f97bd12afe6fd3085631d4569b4b0ffd3d3009f2d3bb8525c",
          "blockNumber": "0x287823",
          "blockTimestamp": "0x6724fe48",
          "transactionHash": "0xd8f98c88cf3f51773f03b4949dfe13074345eb28ba87bc529c07add0f155a91d",
          "transactionIndex": "0xf",
          "logIndex": "0x18",
          "removed": false
        }
      ],
      "logsBloom": "0x00000000000000000000000000000000000000000000000000000000000000000000000000200000000000000000000000000000000000000000000000000000000000000000000000000000000000000000000001000000001800000000000000000000000000000000000000000000000000000000000000000000000000000020000000000100000000000000000000000000000000000000000000000000000000000000000000000000000000000000000000000000000000000000000000000000000000000000000000000000000000000000000000000000000000000000000000000000000000000000000000000000000000000000000000000000",
      "type": "0x2",
      "transactionHash": "0xd8f98c88cf3f51773f03b4949dfe13074345eb28ba87bc529c07add0f155a91d",
      "transactionIndex": "0xf",
      "blockHash": "0xacc1c616a417ad1f97bd12afe6fd3085631d4569b4b0ffd3d3009f2d3bb8525c",
      "blockNumber": "0x287823",
      "gasUsed": "0x2727d",
      "effectiveGasPrice": "0x11e97638",
      "from": "0x090f02fac47a0a4e0f38b0118e58b34d45b30625",
      "to": "0x0c65d60940fa4afdb5eefa05d952d72a4d23ff3a",
      "contractAddress": null
    }
  ],
  "libraries": [],
  "pending": [],
  "returns": {},
  "timestamp": 1730477682,
  "chain": 17000,
  "commit": "ddff30d"
}