{
  "transactions": [
    {
      "hash": "0x9aeb337859c93ae4dbaf6d3f2c40bfdd39afa0a91096773801fad0e1e0df0558",
      "transactionType": "CALL",
      "contractName": null,
      "contractAddress": "0x0c65d60940fa4afdb5eefa05d952d72a4d23ff3a",
      "function": "diamondCut((address,uint8,bytes4[])[],address,bytes)",
      "arguments": [
        "[(0x0000000000000000000000000000000000000000, 2, [0xce76756f])]",
        "0x0000000000000000000000000000000000000000",
        "0x"
      ],
      "transaction": {
        "from": "0x090f02fac47a0a4e0f38b0118e58b34d45b30625",
        "to": "0x0c65d60940fa4afdb5eefa05d952d72a4d23ff3a",
        "gas": "0x13969",
        "value": "0x0",
        "input": "0x1f931c1c000000000000000000000000000000000000000000000000000000000000006000000000000000000000000000000000000000000000000000000000000000000000000000000000000000000000000000000000000000000000000000000140000000000000000000000000000000000000000000000000000000000000000100000000000000000000000000000000000000000000000000000000000000200000000000000000000000000000000000000000000000000000000000000000000000000000000000000000000000000000000000000000000000000000000200000000000000000000000000000000000000000000000000000000000000600000000000000000000000000000000000000000000000000000000000000001ce76756f000000000000000000000000000000000000000000000000000000000000000000000000000000000000000000000000000000000000000000000000",
        "nonce": "0x2e",
        "chainId": "0x4268"
      },
      "additionalContracts": [],
      "isFixedGasLimit": false
    }
  ],
  "receipts": [
    {
      "status": "0x1",
      "cumulativeGasUsed": "0x1c7e907",
      "logs": [
        {
          "address": "0x0c65d60940fa4afdb5eefa05d952d72a4d23ff3a",
          "topics": [
            "0x8faa70878671ccd212d20771b795c50af8fd3ff6cf27f4bde57e5d4de0aeb673"
          ],
          "data": "0x000000000000000000000000000000000000000000000000000000000000006000000000000000000000000000000000000000000000000000000000000000000000000000000000000000000000000000000000000000000000000000000140000000000000000000000000000000000000000000000000000000000000000100000000000000000000000000000000000000000000000000000000000000200000000000000000000000000000000000000000000000000000000000000000000000000000000000000000000000000000000000000000000000000000000200000000000000000000000000000000000000000000000000000000000000600000000000000000000000000000000000000000000000000000000000000001ce76756f000000000000000000000000000000000000000000000000000000000000000000000000000000000000000000000000000000000000000000000000",
          "blockHash": "0x77e852e59fdc70873d4ed49560bdfff5e37c36b8a290874ec0733670fab917ef",
          "blockNumber": "0x28788b",
          "blockTimestamp": "0x672503e8",
          "transactionHash": "0x9aeb337859c93ae4dbaf6d3f2c40bfdd39afa0a91096773801fad0e1e0df0558",
          "transactionIndex": "0x40",
          "logIndex": "0x80",
          "removed": false
        }
      ],
      "logsBloom": "0x00000000000000000000000000000000000000000000000000000000000000000000000000200000000000000000000000000000000000000000000000000000000000000000000000000000000000000000000001000000001800000000000000000000000000000000000000000000000000000000000000000000000000000020000000000100000000000000000000000000000000000000000000000000000000000000000000000000000000000000000000000000000000000000000000000000000000000000000000000000000000000000000000000000000000000000000000000000000000000000000000000000000000000000000000000000",
      "type": "0x2",
      "transactionHash": "0x9aeb337859c93ae4dbaf6d3f2c40bfdd39afa0a91096773801fad0e1e0df0558",
      "transactionIndex": "0x40",
      "blockHash": "0x77e852e59fdc70873d4ed49560bdfff5e37c36b8a290874ec0733670fab917ef",
      "blockNumber": "0x28788b",
      "gasUsed": "0xe2e8",
      "effectiveGasPrice": "0x106ba167",
      "from": "0x090f02fac47a0a4e0f38b0118e58b34d45b30625",
      "to": "0x0c65d60940fa4afdb5eefa05d952d72a4d23ff3a",
      "contractAddress": null
    }
  ],
  "libraries": [],
  "pending": [],
  "returns": {},
  "timestamp": 1730479088,
  "chain": 17000,
  "commit": "ddff30d"
}